:10000000A8C00000DFC00000DDC00000DBC00000B1
:10001000D9C00000D7C00000D5C00000D3C0000088
:10002000D1C00000CFC0000014C50000CBC000004C
:10003000C9C00000C7C00000C5C00000C3C00000A8
:10004000C1C00000BFC00000BDC00000BBC00000B8
:10005000B9C00000B7C00000B5C00000B3C00000C8
:10006000B1C00000AFC00000ADC00000ABC00000D8
:10007000A9C00000A7C00000A5C00000A3C00000E8
:10008000A1C000009FC000009DC000009BC00000F8
:1000900099C0000097C0000005010906A1010507ED
:1000A00019E029E7150025017501950881029501E0
:1000B0007508810105081901290595057501910249
:1000C000950175039101150025FF0507190029FF0A
:1000D000950675088100C01201100100000008EBB0
:1000E0000342200100010200010902220001010077
:1000F000C0320904000001030101000921110100BF
:1001000001223F00070581030800050403090418C4
:10011000034400650061006E002000430061006D33
:1001200000650072006100000026034C0055004687
:1001300000410020004B006500790062006F006103
:1001400000720064002000440065006D006F000034
:10015000000011241FBECFEFD0E2DEBFCDBF04B63A
:1001600003FE18C08091450190914601A09147017E
:10017000B09148018A5C9C4AA244BC4D59F410924B
:100180004501109246011092470110924801E0E0AB
:10019000F0EE099511E0A0E0B1E0E4E8F3E100E061
:1001A0000BBF02C007900D92A831B107D9F711E03B
:1001B000A8E1B1E001C01D92A534B107E1F769D112
:1001C0000C94C0091DCF8BB18F70806A8BB90895D4
:1001D0008BB18F7080618BB9089580910E019091E1
:1001E0000F01009729F0019790930F0180930E0162
:1001F0000895853059F1863070F4823009F18330EA
:1002000028F48823C9F08130A9F418C08330D1F0D4
:10021000843081F419C0883011F1893028F4863097
:10022000B9F0873039F416C08A3029F18A30D0F01D
:100230008B3059F180E0089580B112C080B113C0B5
:1002400080B11AC080B107C083B10AC083B10BC0AE
:1002500083B112C083B182958695869501C086B11F
:100260008370089586B190E08C7090709595879515
:1002700095958795089586B190E08073907024E0FD
:10028000959587952A95E1F7089586B1829586958B
:10029000869583700895382F8830A1F0883040F01B
:1002A0008A30B1F08A3088F08B30A9F020E015C098
:1002B0002CB181E090E002C0880F991F3A95E2F7D7
:1002C00028230BC029B1217008C029B1227005C0B4
:1002D00029B1247002C029B12870822F0895089591
:1002E0003CD3F89480E29EE420E931E0F9013197B3
:1002F000F1F70197D9F78AEC9CEAA2E4BCED809370
:10030000450190934601A0934701B09348012CE02A
:1003100088E190E00FB6F894A895809360000FBE36
:1003200020936000FFCF8F929F92BF92CF92DF9277
:10033000EF92FF920F931F93CF93DF9348017901C0
:100340008CB18F70863009F4CBDF44E2C42E41E0DB
:10035000D42EBB2400E010912401802F4ADF18170F
:1003600029F1F6018081C82FD0E0FE01EC5EFE4F3E
:100370001081802F3EDF181739F4F701EB0DF11DC6
:100380000C5F028304500DC0C05FDE4F1881802FC8
:1003900030DF181739F4F701EB0DF11D005F028310
:1003A0000051B394802F25DFF60180830F5F0894FE
:1003B000C11CD11C0C3079F6C8E1D1E000E01091ED
:1003C0001801802F68DF181771F0802F64DF8823F1
:1003D00039F4F701EB0DF11D0C5A02830455B39467
:1003E000802F59DF88830F5F21960C3041F788E01A
:1003F00090E0F4019183808380E0DF91CF911F91A1
:100400000F91FF90EF90DF90CF90BF909F908F90D3
:10041000089580E091E054C680E091E030D690915C
:10042000E20094609093E20080FD02C090E901C078
:1004300090E68BB18F70982B9BB9089584B7877F16
:1004400084BF88E10FB6F89480936000109260003A
:100450000FBE80E090E020E80FB6F8942093610092
:10046000809361000FBE8AB1807F8AB98BB18F60A3
:100470008BB911B88FEF82B917B888B914B885B99C
:100480001DB88EB98AB1806F8AB98BB18F708BB964
:10049000C5C2D4DF8BB18F7080618BB9789480E056
:1004A00091E01FD509D5FBCFDA019330B1F094303C
:1004B00028F4913041F0923079F50AC0913211F16F
:1004C000923251F524C0E7EDF0E022E130E028C09F
:1004D000E9EEF0E022E230E023C0813049F08130E3
:1004E00018F08230C9F40AC0EBE0F1E0849103C057
:1004F000EFE0F1E08491282F30E012C0E9E2F1E072
:100500008491F9CFEBEFF0E029E030E009C0E8E9B1
:10051000F0E02FE330E004C0E0E0F0E020E030E085
:10052000ED93FC93C90108959C01409143015091C2
:1005300044014617570718F4F90190E03DC06115D2
:10054000710511F0AB01F8CF8091E8008E778093B0
:10055000E80040E050E0F0CF80913C018823F1F1C9
:100560008530F1F18091E80083FF02C081E00895B9
:100570008091E80082FD2CC08091E80080FF1CC0C3
:100580002091F2003091F30007C081918093F10037
:10059000415050402F5F3F4F4115510519F0283011
:1005A000310598F390E02830310509F491E080910D
:1005B000E8008E778093E8004115510569F699238C
:1005C00059F606C080913C01882341F0853041F006
:1005D0008091E80082FFF6CF80E0089582E00895E0
:1005E00083E008959C016115710529F48091E8006C
:1005F0008B778093E800F90122C080913C01882329
:1006000071F1853071F18091E80083FF02C081E0D3
:1006100008958091E80082FFF0CF06C08091F1003C
:1006200081936150704031F08091F2009091F3001D
:10063000892BA1F78091E8008B778093E800611502
:100640007105D9F606C080913C01882341F08530C0
:1006500041F08091E80080FFF6CF80E0089582E0CD
:10066000089583E008959C01409143015091440115
:100670004617570718F4F90190E040C0611571055D
:1006800011F0AB01F8CF8091E8008E778093E800FD
:1006900040E050E0F0CF80913C01882309F440C055
:1006A000853009F43FC08091E80083FF02C081E0FB
:1006B00008958091E80082FD2DC08091E80080FFC0
:1006C0001DC02091F2003091F30008C08491809306
:1006D000F1003196415050402F5F3F4F4115510579
:1006E00019F02830310590F390E02830310509F4F5
:1006F00091E08091E8008E778093E80041155105E4
:1007000051F6992341F606C080913C01882341F0BF
:10071000853041F08091E80082FFF6CF80E00895B7
:1007200082E0089583E00895BF92CF92DF92EF9226
:10073000FF920F931F93CF93DF93182F092F7B0105
:100740006A01D9D0B82E8823B1F5812F902F9C0152
:10075000E901C114D10439F0F60180819181E81AD0
:10076000F90AC80FD91F00E010E022C08091E8000C
:1007700085FD16C08091E8008E778093E8009CD3B9
:10078000C114D10449F0F60180819181800F911F3D
:100790009183808385E010C0AED0882349F00CC0DF
:1007A00089918093F1000894E108F1080F5F1F4FD1
:1007B000E114F104D9F68B2DDF91CF911F910F91A8
:1007C000FF90EF90DF90CF90BF900895382F282FA3
:1007D0002EC0822F8F708093E900231721F4762F8B
:1007E000942F50E006C07091EC009091ED00509174
:1007F000F00091FF1BC08091EB008E7F8093EB0097
:100800008091ED008D7F8093ED008091EB00816001
:100810008093EB007093EC009093ED005093F00008
:100820008091EE0087FD02C080E008952F5F2730A1
:1008300080F23F703093E90081E008950F931F9399
:10084000CF93DF93062FEC0110E02AC09881992303
:1008500029F16B81E981FA812C81892F8F70873092
:1008600018F5223010F452E001C056E040E028E0D4
:1008700030E003C04F5F220F331F2E173F07D0F326
:100880006295660F660F607C991F9927991F692BE7
:100890004295407F452B9ADF882331F01F5F2596D4
:1008A0001017A0F281E001C080E0DF91CF911F918D
:1008B0000F91089580913D0188239CF404C080919C
:1008C0003C018823B9F08091E80082FFF8CF809145
:1008D000E8008B778093E800089580913C0188239D
:1008E00049F08091E80080FFF8CF8091E8008E7792
:1008F0008093E80008954091E4005091E50024E6DB
:100900008091EC0080FF24C08091E80080FD1EC033
:1009100080913C01882311F482E00895853011F420
:1009200083E008958091EB0085FF02C081E0089587
:100930008091E4009091E5008417950709F3222344
:1009400011F484E008952150AC01DACF80E00895DD
:100950008091E80082FFDCCFF9CF6ED075D0E0EE59
:10096000F0E0808181608083A8EDB0E08C918F778A
:100970008C9319BCE7EDF0E080818E7F80838C91B1
:100980008F7E8C9310923B010895EF92FF920F930C
:100990001F9352D059D008ED10E0F80180818F7775
:1009A000808380818068808380818F7D8083E7ED74
:1009B000F0E080818068808319BC10923C01109225
:1009C000380110923A011092390180EEE82EF12C94
:1009D000F70180818B7F8083F80180818160808333
:1009E00080E060E042E0F2DEE1EEF0E080818E7FC8
:1009F0008083E2EEF0E08081816080838081886086
:100A00008083F70180818E7F8083F80180818061FF
:100A100080831F910F91FF90EF900895E8EDF0E033
:100A200080818F7E8083E7EDF0E08081816080832C
:100A300081E080933B01A9CFE8EDF0E080818C7FDD
:100A400080831092E20008951092DA001092E10083
:100A500008951F920F920FB60F920BB60F921124AA
:100A60002F933F934F935F936F937F938F939F93B6
:100A7000AF93BF93EF93FF938091E10082FF0AC091
:100A80008091E20082FF06C08091E1008B7F80931D
:100A9000E100A3DB8091DA0080FF1DC08091D800C7
:100AA00080FF19C08091DA008E7F8093DA008091F8
:100AB000D90080FF0CC084E189BD86E189BD09B4FD
:100AC00000FEFDCF81E080933C017DDB04C019BCBA
:100AD00010923C017DDB8091E10080FF18C0809185
:100AE000E20080FF14C08091E2008E7F8093E200DC
:100AF0008091E20080618093E2008091D800806262
:100B00008093D80019BC85E080933C01D4D18091BA
:100B1000E10084FF2FC08091E20084FF2BC084E1BC
:100B200089BD86E189BD09B400FEFDCF8091D80062
:100B30008F7D8093D8008091E1008F7E8093E100CB
:100B40008091E2008F7E8093E2008091E2008160DC
:100B50008093E20080913801882311F084E007C07F
:100B60008091E30087FD02C081E001C083E08093B3
:100B70003C01A1D18091E10083FF22C08091E2007D
:100B800083FF1EC08091E100877F8093E10082E0B7
:100B900080933C01109238018091E1008E7F809318
:100BA000E1008091E2008E7F8093E2008091E2007C
:100BB00080618093E20080E060E042E007DE7BD16C
:100BC000FF91EF91BF91AF919F918F917F916F9125
:100BD0005F914F913F912F910F900BBE0F900FBEE1
:100BE0000F901F9018951F93DF93CF93CDB7DEB76B
:100BF000AC970FB6F894DEBF0FBECDBFEDE3F1E0CA
:100C00008091F100819321E0E534F207C9F701DC1E
:100C10008091E80083FF37C180913D0130913E0112
:100C2000353009F487C0363040F43130C9F1313005
:100C300070F0333009F027C133C0383009F4F5C003
:100C4000393009F404C1363009F01DC196C080382E
:100C500021F0823809F017C108C0909139018091C4
:100C60003A01882399F0926011C0809141018F7000
:100C70008093E9008091EB0090E025E096958795C0
:100C80002A95E1F7982F91701092E9008091E80081
:100C9000877F8093E8009093F1001092F100D0C01C
:100CA000882319F0823009F0EEC090E08F719070C7
:100CB000009721F0029709F0E6C00CC080913F0137
:100CC000813009F0E0C010923A01333069F5809329
:100CD0003A012AC080913F01882331F520914101DA
:100CE0002F7009F4D0C02093E9008091EB0080FFC1
:100CF0001BC0333021F48091EB00806213C08091DF
:100D0000EB0080618093EB0081E090E002C0880FEF
:100D1000991F2A95E2F78093EA001092EA008091E9
:100D2000EB0088608093EB001092E9008091E8006E
:100D3000877F89C0882309F0A6C010913F011F77E3
:100D40008091E3008078812B8093E3008091E8001C
:100D5000877F8093E800AEDD8091E80080FFFCCFC4
:100D60008091E30080688093E300112311F482E016
:100D700001C083E080933C0186C08058823008F037
:100D800082C080913F019091400123E08C3D920709
:100D900009F033C083E08C838AE28B837FB7F894B9
:100DA000DE0115966EE040E050E011E2E62FF0E043
:100DB00010935700849140FF03C082958F706F5F3E
:100DC0008F70282F30E08A3018F0C901C79602C012
:100DD000C901C0968D939D934F5F5F4F443151057C
:100DE00029F77FBF8091E800877F8093E800CE01DC
:100DF00003966AE270E098DB12C060914101AE0197
:100E00004F5F5F4F51DBBC01009709F43CC08091FC
:100E1000E800877F8093E80089819A8124DC8091B3
:100E2000E8008B778093E8002EC0803861F58091D0
:100E3000E800877F8093E800809138018093F1007B
:100E40008091E8008E778093E80034DD1CC0882311
:100E5000D1F490913F019230B0F48091E800877F07
:100E60008093E8009093380125DD80913801882334
:100E700031F48091E30087FD02C081E001C084E08D
:100E800080933C01C9DA8091E80083FF0AC0809119
:100E9000E800877F8093E8008091EB008062809378
:100EA000EB00AC960FB6F894DEBF0FBECDBFCF916E
:100EB000DF911F91089508951F9380913C0188232D
:100EC00071F01091E9008091EC001092E90080919E
:100ED000E80083FF01C087DE1F701093E9001F91B7
:100EE00008954F925F926F927F928F929F92AF92EE
:100EF000BF92CF92DF92EF92FF920F931F93DF93F7
:100F0000CF9300D00F92CDB7DEB77C016DB67EB621
:100F100080913C01843009F099C02091E400309127
:100F2000E500F701828593858217930709F48EC047
:100F300081818F708093E9008091E80085FF86C0F1
:100F40005DB64EB6408550E08DB79EB7841B950BBD
:100F50000FB6F8949EBF0FBE8DBF0DB71EB70F5FC3
:100F60001F4F19821B821A82C02E912EC80160E089
:100F700070E050E0FED1C701BE016F5F7F4F40E0DF
:100F800098018E010E5F1F4FCED9882EF701848500
:100F90009585892B19F4AA24BB240BC020E0F70106
:100FA00086859785892B09F021E081E02827A22EEC
:100FB000BB24F701068117810115110511F4DD2409
:100FC00012C04A815B818C2D992DB801BCD1DD24E2
:100FD000009711F0DD24D394F7014085C8016C2DF2
:100FE000792D50E0BDD18A819B81892B01F1882028
:100FF00021F4DD2011F4AB28D1F0F701848595852B
:101000009787868781818F708093E9008981882303
:1010100011F08093F1006A817B818C2D992D40E045
:1010200050E082DB8091E8008E778093E800809129
:10103000E4009091E500F70193878287252D342DF8
:10104000C9010FB6F8949EBF0FBE8DBF0FB6F894BE
:101050007EBE0FBE6DBE0F900F900F90CF91DF91AF
:101060001F910F91FF90EF90DF90CF90BF90AF90C6
:101070009F908F907F906F905F904F900895CF9347
:10108000DF93DC010996FC0187E0EF0119928A9554
:10109000E9F781E019968C93199784EF91E01D96FA
:1010A0009C938E931C9783E014968C931497CD0198
:1010B000019661E0C3DB811181E0DF91CF9108955A
:1010C0006F927F928F929F92AF92BF92CF92DF9258
:1010D000EF92FF920F931F93DF93CF9300D00F9265
:1010E000CDB7DEB76C016DB67EB68091E80083FFA8
:1010F00013C1F601808190E02091410130914201BD
:101100002817390709F008C180913E01833009F49E
:10111000ABC0843030F4813071F0823009F0FCC013
:10112000DFC08A3009F4C4C08B3009F4AEC0893006
:1011300009F0F2C056C080913D01813A09F0ECC03F
:101140009DB68EB61B821A8280913F01109140019C
:101150008983F601408550E08DB79EB7841B950BBF
:101160000FB6F8949EBF0FBE8DBFEDB6FEB60894C5
:10117000E11CF11CBE2CAF2CC70160E070E050E018
:10118000F8D01150C601BE016F5F7F4F412F97010C
:101190008E010E5F1F4FC7D8F601268137812115BA
:1011A000310529F04085C901B70150E0D9D010922E
:1011B000E9008091E800877F8093E8006A817B8165
:1011C0008B2D9A2DB1D98091E8008B778093E80020
:1011D000292D382DC9010FB6F8949EBF0FBE8DBFC3
:1011E0009BC080913D01813209F096C09DB68EB6BC
:1011F0000091430110914401A0903F01B090400143
:101200008DB79EB7801B910B0FB6F8949EBF0FBE93
:101210008DBFEDB6FEB60894E11CF11C8091E8008C
:10122000877F8093E800C701B801DCD98091E8008E
:101230008E778093E80080E090E0AA2011F081E0B2
:1012400090E0BA94E80EF91E081B190BC6016A2D2E
:101250004B2D970144D8892D982D9C010FB6F894F9
:101260003EBF0FBE2DBF58C080913D01813A09F0AD
:1012700053C08091E800877F8093E8008091E80068
:1012800080FFFCCFF60181853FC080913D01813216
:1012900009F042C08091E800877F8093E8000ADB74
:1012A00090E080913F01811191E0F601918734C077
:1012B00080913D01813281F58091E800877F8093A4
:1012C000E800F8DA80913F0190914001807036E0AB
:1012D000969587953A95E1F7F601958784871CC026
:1012E00080913D01813AC1F48091E800877F80932D
:1012F000E8008091E80080FFFCCFF60184859585A9
:1013000096958795969587958093F1008091E80052
:101310008E778093E800CEDA0FB6F8947EBE0FBECB
:101320006DBE0F900F900F90CF91DF911F910F9195
:10133000FF90EF90DF90CF90BF90AF909F908F90F5
:101340007F906F900895FB01DC0104C08D910190A6
:10135000801921F441505040C8F7881B990B08951B
:10136000FB01DC0102C001900D9241505040D8F7C2
:101370000895DC0101C06D9341505040E0F708959D
:04138000F894FFCF0F
:101384000081080000013001080000000000000096
:08139400010300020200030145
:00000001FF
